:020000040040BA
:10000000D02C4020A9294000592A4000592A4000FC
:10001000592A4000592A4000592A40000000000097
:10002000000000000000000000000000592A40000D
:10003000592A400000000000592A4000592A400077
:10004000592A4000592A4000592A4000592A4000A4
:10005000592A4000592A4000592A4000592A400094
:10006000592A4000000000001921400031214000C1
:1000700049214000592A4000592A4000592A40008D
:100080006121400079214000592A4000592A40004E
:10009000592A4000592A4000592A4000592A400054
:1000A000592A4000592A4000592A4000592A400044
:1000B000592A4000592A4000592A4000592A400034
:1000C000592A4000592A4000592A4000592A400024
:1000D00000000000592A400000000000592A40009A
:1000E000592A4000592A4000592A4000592A400004
:1000F000592A4000592A4000592A4000592A4000F4
:10010000592A4000592A4000592A4000592A4000E3
:10011000592A40000000000000000000000000001C
:10012000592A4000592A4000592A4000592A4000C3
:10013000592A400000000000592A4000592A400076
:1001400010B5054C237833B9044B13B10448AFF311
:1001500000800123237010BDD00940200000000062
:10016000048A40000C4B43B10C480D4910B5AFF365
:1001700000800C48036823B910BD0A48036833B9EE
:100180007047094B002BF7D0BDE810401847064BCD
:10019000002BF5D0184700BF00000000048A400083
:1001A000D4094020048A40000000000080B483B0DD
:1001B00000AF78607B685B6803F00203002B01D01E
:1001C000012300E0002318460C37BD465DF8047B90
:1001D0007047000080B582B000AF78607868034B4C
:1001E000984700BF0837BD4680BD00BF552440007A
:1001F00080B582B000AF78607B68094A934203D132
:100200001520084B984706E07B68074A934202D1C5
:100210002A20044B984700BF0837BD4680BD00BF69
:1002200000800040D50140000080054080B483B0CC
:1002300000AF786039607B685B6823F470227B686C
:100240005A607B685A683B681B0403F470231A43A6
:100250007B685A6000BF0C37BD465DF8047B704771
:1002600080B584B000AF7860084611461A46034650
:100270007B800B467B7013463B7043F69823FB60F4
:1002800006E0FB685A1EFA60002B01D1012320E032
:100290007B681B6903F00203002BF2D078680F4BD8
:1002A00098470346002B0ED07A887B781B0403F412
:1002B00070231343BB603B78002B06D0BB6843F030
:1002C0008073BB6001E07B88BB607B68BA68DA60E2
:1002D000002318461037BD4680BD00BFAD01400069
:1002E00080B485B000AFF860B9607A607B68002B9D
:1002F0000CD0FB68BA680C3253F8223043F001018D
:10030000FB68BA680C3243F822100BE0FB68BA684D
:100310000C3253F8223023F00101FB68BA680C322A
:1003200043F8221000BF1437BD465DF8047B7047C8
:1003300080B485B000AFF860B9607A607B68002B4C
:100340000CD0FB68BA680C3253F8223043F002013B
:10035000FB68BA680C3243F822100BE0FB68BA68FD
:100360000C3253F8223023F00201FB68BA680C32D9
:1003700043F8221000BF1437BD465DF8047B704778
:1003800080B485B000AFF860B9607A607B68042BF8
:1003900018D1FB68BA680C3253F8223023F00801F8
:1003A000FB68BA680C3243F82210FB68BA680C325A
:1003B00053F8223043F00401FB68BA680C3243F86A
:1003C00022102AE07B68002B18D1FB68BA680C3237
:1003D00053F8223023F00801FB68BA680C3243F866
:1003E0002210FB68BA680C3253F8223023F0040163
:1003F000FB68BA680C3243F822100EE07B68082BC9
:100400000BD1FB68BA680C3253F8223043F0080174
:10041000FB68BA680C3243F8221000BF1437BD469F
:100420005DF8047B704780B485B000AFF860B960B8
:100430007A60FB68BA680C3253F8223023F0F0017E
:10044000FB68BA680C3243F82210FB68BA680C32B9
:1004500053F822207B6842EA0301FB68BA680C3239
:1004600043F8221000BF1437BD465DF8047B704787
:1004700080B485B000AF786039603A687B68134417
:100480005A1E7B68B2FBF3F3FB60FB68002B02DDB6
:10049000FB68FF2B02DD4FF0FF3301E0FB681BB26E
:1004A00018461437BD465DF8047B704780B485B0AC
:1004B00000AFF860B9601346FB71FB79002B02D1E5
:1004C0004FF0FF331BE0FB68BA680C3253F8223060
:1004D00023F47F41FB68BA680C3243F82210FB68B2
:1004E000BA680C3253F82220FB791B029BB242EA15
:1004F0000301FB68BA680C3243F822100023184647
:100500001437BD465DF8047B7047000080B483B0AB
:1005100000AF7860044A7B68136000BF0C37BD46AB
:100520005DF8047B704700BFEC09402080B483B0C5
:1005300000AF0346FB710B46BB7113467B71084B42
:100540001A68FB79DB011946BB790B4413447A79AD
:100550001A7000BF0C37BD465DF8047B704700BFC2
:10056000EC09402080B483B000AF03460A46FB711B
:100570001346BB71074B1A68FB79DB011946BB793F
:100580000B4413441B7818460C37BD465DF8047BBA
:10059000704700BFEC09402090B585B000AF04461D
:1005A000084611461A462346FB710346BB710B46AB
:1005B0007B7113463B71FA797B791344802B06DDFE
:1005C000FB79C3F1FF2303F57F0380337B71BB7994
:1005D000DB08FB73BA79FB7BDB00D31A012202FA3A
:1005E00003F3BB737B79002B66D03B79012B1CD0C6
:1005F000022B5BD0002B3BD05FE0FA797B79134470
:10060000DAB2FB7B114618462D4B984703467B73A5
:100610007A7BBB7B13437B73FA797B791344D9B222
:100620007A7BF87B0023274CA0477B795A1E7A718E
:10063000002BE2D141E0FA797B791344DAB2FB7BFB
:10064000114618461E4B984703467B7397F90E30A8
:10065000DB435AB297F90D3013405BB27B73FA79E2
:100660007B791344D9B27A7BF87B0023154CA047E1
:100670007B795A1E7A71002BDDD11EE0FA797B79E5
:100680001344DAB2FB7B114618460D4B98470346DC
:100690007B737A7BBB7B53407B73FA797B79134402
:1006A000D9B27A7BF87B0023064CA0477B795A1E8F
:1006B0007A71002BE2D100E000BF1437BD4690BD37
:1006C000D50A4000510A400090B583B000AF0446FF
:1006D000084611461A462346FB710346BB710B467A
:1006E0007B7113463B713B79002B0FD008E0BA7940
:1006F0003B791344D9B23B7E7A79F879054CA0470F
:100700003B795A1E3A71002BF1D100E000BF0C3743
:10071000BD4690BD9905400080B586B000AF3B60F6
:100720000346FB710B46BB7113467B71BB793B746F
:100730007B79FB733B681B7ADB08FB743B681B7A95
:1007400003F00703DBB2002B02D0FB7C0133FB7408
:10075000FB7C9AB23B685B7A9BB212FB03F39AB2C2
:10076000FB793968897A5B1A9BB212FB03F3BB8170
:100770003B685A68BB8913447B613B685B7ABB74F6
:100780000023BB733B681B7AFB7200237B741EE063
:100790007B7C03F00703DBB2002B05D17B691B7860
:1007A000BB737B6901337B6197F90E30002B05DA4F
:1007B000F97B3B7C012218460E4B98473B7C01336A
:1007C0003B74BB7B5B00BB737B7C01337B747A7CAB
:1007D000FB7A9A42DCD3FB7B0133FB73BB793B741E
:1007E000BB7C013BBB74BB7C002BC9D100BF18375D
:1007F000BD4680BDB509400090B585B002AF3B60F5
:100800000346FB710B46BB7113467B713B681A7A3A
:100810003B685C7A7979B879002300932346094CC8
:10082000A0473B681B78002B00D006E07A79B979A5
:10083000F8793B68044CA04700BF00BF0C37BD46A9
:1008400090BD00BFC90640001907400090B587B0B1
:1008500000AFF8607B600B46FB721346BB72FB7AFD
:10086000FB75FB681B780A2B09D1FB7DFB727B684B
:100870005A7ABB7A1344DBB20133BB720FE0FB68D8
:100880001B780D2B0BD0FB681878BA7AF97A7B6845
:10089000084CA0477B681A7AFB7A1344FB72FB680A
:1008A0000133FB60FB681B78002BDAD100BF1C37DB
:1008B000BD4690BDF907400080B582B000AF034649
:1008C000FB71FB7903F00F03FB71FB7963F04F03BE
:1008D000DBB21846024B984700BF0837BD4680BDC3
:1008E000BD11400080B582B000AF0346FB71FB79BB
:1008F00003F07F03FB71FB791B09DBB243F01003AC
:10090000DBB21846064B9847FB7903F00F03DBB2C6
:100910001846034B984700BF0837BD4680BD00BF4F
:10092000BD11400080B582B000AF0346FB71FB797A
:1009300003F03F03FB71FB7943F04003DBB2184641
:10094000024B984700BF0837BD4680BDBD1140002F
:1009500090B583B000AF1248124B9847124B98479E
:100960000020124B98470023FB7112E00023BB715B
:1009700008E0B979F879012300220D4CA047BB7932
:100980000133BB7197F90630002BF2DAFB790133A2
:10099000FB71FB79032BE9D900BF0C37BD4690BD35
:1009A000F00940200D0540000D11400025094000D0
:1009B000510A400090B585B000AF0346FB710B466D
:1009C000BB7113467B7197F90730002B38DBBB797D
:1009D0001F2B35D8BB79DB08BB73BA79BB7BDB0037
:1009E000D31A012202FA03F37B73FA79BB7B114617
:1009F0001846154B98470346FB737B79012B04D0AF
:100A0000022B11D0002B05D013E0FA7B7B7B134324
:100A1000FB730EE097F90D30DB435AB297F90F30B4
:100A200013405BB2FB7304E0FA7B7B7B5340FB73A8
:100A300000BFFA7BF979B87B0023044CA04700E0A3
:100A400000BF1437BD4690BDD50A4000510A400092
:100A500090B583B000AF0446084611461A462346B7
:100A6000FB710346BB710B467B7113463B713B79AF
:100A700083F00103DBB2002B0AD0BA79FB7911466F
:100A800018460F4B984703461A467B79934212D07B
:100A90007A79B979FB7918460A4B9847FB79184659
:100AA000094B9847BB791846084B98477B791846FD
:100AB000074B984700E000BF0C37BD4690BD00BF14
:100AC000650540002D054000B9084000E5084000DC
:100AD0006112400080B582B000AF03460A46FB7148
:100AE0001346BB71BA79FB7911461846034B9847F8
:100AF000034618460837BD4680BD00BF6505400067
:100B000080B483B000AF78607B68072B25D801A242
:100B100052F823F0350B40003B0B4000410B4000E6
:100B2000470B40004B0B40004F0B4000530B400065
:100B3000570B40004FF4FA4310E04FF400430DE030
:100B40004FF400430AE0084B08E0084B06E0084B6E
:100B500004E0074B02E0064B00E0002318460C3788
:100B6000BD465DF8047B704700093D0000127A0025
:100B7000001BB70080B500AF0620054B9847024622
:100B800013469B0013449A001344184680BD00BFCF
:100B9000010B400080B500AF024B98470346184652
:100BA00080BD00BF750B400080B500AF024B984779
:100BB00003465B08184680BD750B400080B489B0C1
:100BC00000AF78607B68FB61FB69BB61BB695A0958
:100BD000FB697B617B6903F01F03012101FA03F3C9
:100BE0003A61FB603B69BB60BA68064B13445B0229
:100BF0001A46FB68136000BF2437BD465DF8047BCE
:100C0000704700BF0707200080B48DB000AF786048
:100C100039607B68FB623B68BB62FB6A7B627B6A14
:100C20005A09FB6A3B623B6A03F01F03012101FA88
:100C300003F3FA61BB61BB6A7B61FB693B613A69A3
:100C4000374B13445B02FB607B6903F00803002B06
:100C500003D0FB68BA695A6602E0FB68BA691A6693
:100C60007B6903F01003002B04D0FB68BA69C3F85A
:100C7000942003E0FB68BA69C3F890207B6903F015
:100C80002003002B03D0FB68BA691A6502E0FB68F9
:100C9000BA695A657B6903F0C003002B03D0FB6877
:100CA000BA691A6202E0FB68BA695A627B6903F0AA
:100CB0008003002B04D0FB68BA69C3F8842003E0EA
:100CC000FB68BA69C3F880207B6903F00103002B3D
:100CD00006D0FB681A6FBB691A43FB681A6706E007
:100CE000FB681A6FBB69DB431A40FB681A677B69B4
:100CF00003F00203002B06D0FB685A6FBB691A434E
:100D0000FB685A6706E0FB685A6FBB69DB431A4011
:100D1000FB685A6700BF3437BD465DF8047B7047F7
:100D20000707200080B48DB000AF78600B46FB70E1
:100D30007B68FB62FB7887F82B30FB6A7B627B6AFF
:100D40003B623B6A5B09FB61FA69174B13445B0228
:100D5000BB6197F82B30012B09D1FB6A7B617B6962
:100D600003F01F0301229A40BB691A610CE097F857
:100D70002B30002B08D1FB6A3B613B6903F01F035A
:100D800001229A40BB695A61FB6AFB60FB6803F071
:100D90001F0301229A40BB69C3F8A02000BF34376B
:100DA000BD465DF8047B70470707200080B48BB018
:100DB00000AF78600B46FB707B687B62FB7887F83E
:100DC00023307B6AFB61FB69BB61BB695B097B61AB
:100DD0007A69104B13445B023B6197F82330002B78
:100DE00009D07B6AFB60FB6803F01F0301229A4075
:100DF0003B691A6308E07B6ABB60BB6803F01F03B2
:100E000001229A403B695A6300BF2C37BD465DF80A
:100E1000047B70470707200080B483B000AF786080
:100E20007B6880221A6000BF0C37BD465DF8047BEA
:100E3000704780B483B000AF78607B6801221A608D
:100E400000BF0C37BD465DF8047B704780B483B0AB
:100E500000AF78607B6802221A6000BF0C37BD4685
:100E60005DF8047B704780B483B000AF78607B6826
:100E70005B6843F001027B685A6000BF0C37BD46D7
:100E80005DF8047B704780B483B000AF78607B6806
:100E90005B6823F002027B685A6000BF0C37BD46D6
:100EA0005DF8047B704780B483B000AF78607B68E6
:100EB0005B6843F010027B685A6000BF0C37BD4688
:100EC0005DF8047B704780B483B000AF78607B68C6
:100ED0005B6823F080027B685A6000BF0C37BD4618
:100EE0005DF8047B7047000080B582B000AF0F4B07
:100EF000984702460E4BA3FB02239A0C13469B0015
:100F000013445B007B60002151200A4B98477868AE
:100F1000094B984701215120064B98477868064BAA
:100F2000984700BF0837BD4680BD00BF950B400005
:100F300083DE1B43AD0D40000100402080B500AFB3
:100F4000AF20024B984700BF80BD00BFBD114000DD
:100F500080B582B000AF0346FB718120054B9847F6
:100F6000FB791846034B9847FB7918460837BD466E
:100F700080BD00BFBD11400080B500AFA620024B70
:100F8000984700BF80BD00BFBD11400090B583B041
:100F900000AF01215120464B984701212320444BAB
:100FA000984708215120434B984708212320414B63
:100FB00098472320404B984751203F4B98470121A9
:100FC00023203E4B9847012151203C4B984700235A
:100FD0004FF480024FF0805139483A4CA04700232B
:100FE0004FF400124FF080513548364CA047002393
:100FF0004FF000724FF080513148324CA04700232F
:101000004FF480024FF080512D482E4CA047002312
:101010004FF400124FF0805129482A4CA04700237A
:101020004FF000724FF080512548264CA0472648CB
:10103000264B98472448264B98472348254B9847EA
:10104000082201212048244B9847002201211E48F4
:10105000224B9847002201211B48214B98471A48F0
:10106000204B98470022012117481F4B98471648EC
:101070001E4B984714481E4B98471E4B98470346F3
:1010800019461D481D4B984703467B607B68DBB2C1
:101090001A4601210C481A4B98470B48194B9847A0
:1010A0000948194B984700BF0C37BD4690BD00BF9B
:1010B000250D4000090C4000BD0B4000AD0D400067
:1010C00000140E40251E4000008000404D0E4000E0
:1010D000190E4000670E400081034000E10240000D
:1010E00031034000870E400027044000C70E400037
:1010F000A70E4000A90B400080841E007104400030
:10110000AD044000F1014000330E400080B500AF57
:10111000234B9847234B984701215120224B984756
:10112000A820224B98471F20204B9847D3201F4BC5
:10113000984700201D4B984740201C4B9847A12002
:101140001A4B9847C820194B9847DA20174B9847F5
:101150000220164B98478F20154B9847A420134B1D
:101160009847144B9847D520104B984780200F4B39
:1011700098478D200D4B984714200C4B9847DB2047
:101180000A4B98474020094B9847D920074B98476E
:10119000F120064B9847084B984700BF80BD00BF21
:1011A0008D0F4000E90E4000AD0D4000BD11400024
:1011B000510F4000790F40003D0F4000F0B583B063
:1011C00000AF0346FB71002123201C4B98470121EF
:1011D0001B481C4B9847FB7999B201230122184800
:1011E000194CA047194B9847034619464FF0000287
:1011F0000B461446A60046EA93769D002B463446DD
:101200005B1844EB0204DB1844EB04041946224645
:101210000F4B4FF00004CD1842EB04062846314630
:101220000C4C0D4A4FF00003A04703460C461846ED
:101230000A4B984700BF0C37BD46F0BDAD0D4000CE
:10124000008000402D02400061024000950B4000EC
:10125000DF835A00C53B4000E0835A000100402074
:10126000F0B583B000AF0346FB71012123201C4B76
:10127000984701211B481C4B9847FB7999B20123E1
:1012800001221848194CA047194B984703461946A4
:101290004FF000020B461446A60046EA93769D00E6
:1012A0002B4634465B1844EB0204DB1844EB040481
:1012B000194622460F4B4FF00004CD1842EB0406AE
:1012C000284631460C4C0D4A4FF00003A047034618
:1012D0000C4618460A4B984700BF0C37BD46F0BD78
:1012E000AD0D4000008000402D0240006102400032
:1012F000950B4000DF835A00C53B4000E0835A0055
:101300000100402080B582B000AF78607B68072B79
:1013100031D801A252F823F0751340003913400070
:10132000411340004913400051134000591340003D
:10133000611340006B1340000020114B98471AE0E6
:1013400001200F4B984716E000200E4B984712E003
:1013500010200C4B98470EE020200A4B98470AE0DB
:101360003E210020084B984705E03E210120064B16
:10137000984700E000BF00BF0837BD4680BD00BFF2
:1013800091224000FD2240006D23400080B582B0D4
:1013900000AF78607B68072B26D801A252F823F0B3
:1013A000C1134000C5134000C5134000D7134000CF
:1013B000D7134000D7134000D7134000D713400085
:1013C000012312E00B4B98470346002B14BF012367
:1013D0000023DBB209E0084B98470346002B14BFFB
:1013E00001230023DBB200E0002318460837BD4686
:1013F00080BD00BFC9224000E523400080B483B017
:1014000000AF78607B68072B25D801A252F823F043
:1014100031144000371440003D1440004314400094
:10142000471440004B1440004F1440005314400038
:101430004FF4FA4310E04FF400430DE04FF4004343
:101440000AE0084B08E0084B06E0084B04E0074BB5
:1014500002E0064B00E0002318460C37BD465DF85D
:10146000047B704700093D0000127A00001BB700A2
:1014700080B582B000AF0346FB7100BFFB79184610
:10148000054B9847034683F00103DBB2002BF5D1EF
:1014900000BF0837BD4680BD8D13400080B586B0C3
:1014A00000AFF8607A603B600B46FB727B68002BF4
:1014B00007D13B68002B04D1FB684FF470021A601F
:1014C00019E0FB7A18460E4B984702467B68B2FB40
:1014D000F3F37B617B693A6802FB03F37B613B6852
:1014E000013B1A04074B13407A68D2B2134343F40A
:1014F0007C52FB681A6000BF1837BD4680BD00BF34
:10150000FD1340000000FF0780B582B000AF786097
:1015100039603B68002B08D1094B9847094A7B6822
:101520001B6843F00053936205E0064A7B681B6822
:1015300043F48033D36100BF0837BD4680BD00BF90
:101540000124400000060E4080B582B000AF7860F4
:101550007B68002B03D1054B9847034602E0044B00
:101560009847034618460837BD4680BD1D244000F5
:101570003924400080B582B000AF0346FB71FB798F
:10158000033B042B08D8FB791846064B9847FB7998
:101590001846054B984700E000BF00BF0837BD461E
:1015A00080BD00BF051340007114400080B582B0BB
:1015B00000AF786000BF7868044B98470346002B63
:1015C000F9D0002318460837BD4680BD49154000B4
:1015D00080B500AF0620054B9847024613469B0096
:1015E00013449A001344184680BD00BFFD13400009
:1015F00080B500AF024B98470346184680BD00BF38
:10160000D115400090B583B000AF1348134B9847F5
:101610000620134B9847381D192301220621114C2F
:10162000A0473B1D002118460F4B984700200F4B49
:10163000984702200E4B984700200E4B98470E4BC0
:1016400098470E4B984703461846044B984700BFEF
:101650000C37BD4690BD00BF00A3E111C92B40006F
:10166000751540009D14400009154000AD1540005F
:10167000912140000D224000612A4000F1154000F8
:1016800080B400AFBFF34F8FBFF36F8F094B0022C1
:10169000C3F85022074A074B5B6943F40033536198
:1016A000BFF34F8FBFF36F8F00BFBD465DF8047B64
:1016B000704700BF00ED00E080B48BB000AF264B58
:1016C000D3F88030FB61FB695B0BC3F30E037B62D5
:1016D000FB6903F007030433BB61FB69DB08C3F359
:1016E00009037B617B69BB60BB68B3FA83F37B60F2
:1016F0007B68DBB203F01F033B61BFF34F8F7B6955
:101700003B623A6A3B6902FA03F319467A6ABB699B
:1017100002FA03F30B43FB600F4AFB68C2F8603226
:101720003B6A5A1E3A62002BEBD17B6A5A1E7A62E0
:10173000002BE4D1BFF34F8F074A074B5B6943F49B
:1017400080335361BFF34F8FBFF36F8F00BF2C37D0
:10175000BD465DF8047B704700ED00E080B582B0C7
:1017600000AF78607868034B984700BF0837BD46E4
:1017700080BD00BF5524400080B500AF0A20084B53
:1017800098470B20064B98470C20054B9847102094
:10179000034B98471120024B984700BF80BD00BF04
:1017A0005D17400080B48DB000AF786039607B6811
:1017B000FB623B68BB62FB6A7B627B6A5A09FB6A1D
:1017C0003B623B6A03F01F03012101FA03F3FA6154
:1017D000BB61BB6A7B61FB693B613A69374B134470
:1017E0005B02FB607B6903F00803002B03D0FB68FE
:1017F000BA695A6602E0FB68BA691A667B6903F047
:101800001003002B04D0FB68BA69C3F8942003E0EE
:10181000FB68BA69C3F890207B6903F02003002BB2
:1018200003D0FB68BA691A6502E0FB68BA695A65B9
:101830007B6903F0C003002B03D0FB68BA691A620E
:1018400002E0FB68BA695A627B6903F08003002BEF
:1018500004D0FB68BA69C3F8842003E0FB68BA6966
:10186000C3F880207B6903F00103002B06D0FB68DE
:101870001A6FBB691A43FB681A6706E0FB681A6FA8
:10188000BB69DB431A40FB681A677B6903F00203FC
:10189000002B06D0FB685A6FBB691A43FB685A6776
:1018A00006E0FB685A6FBB69DB431A40FB685A6766
:1018B00000BF3437BD465DF8047B70470707200042
:1018C00080B48DB000AF78600B46FB707B68FB6224
:1018D000FB7887F82B30FB6A7B627B6A3B623B6A52
:1018E0005B09FB61FA69174B13445B02BB6197F814
:1018F0002B30012B09D1FB6A7B617B6903F01F034D
:1019000001229A40BB691A610CE097F82B30002B3A
:1019100008D1FB6A3B613B6903F01F0301229A4037
:10192000BB695A61FB6AFB60FB6803F01F0301227D
:101930009A40BB69C3F8A02000BF3437BD465DF8AC
:10194000047B70470707200080B48BB000AF78603D
:101950000B46FB707B687B62FB7887F823307B6AE1
:10196000FB61FB69BB61BB695B097B617A69104BF9
:1019700013445B023B6197F82330002B09D07B6A4C
:10198000FB60FB6803F01F0301229A403B691A6366
:1019900008E07B6ABB60BB6803F01F0301229A402A
:1019A0003B695A6300BF2C37BD465DF8047B704726
:1019B0000707200080B48DB000AF78600B46FB7045
:1019C0007B68FB62FB7887F82B30FB6A7B627B6A63
:1019D0005A09FB6A3B623B6A03F01F03012101FACB
:1019E00003F3FA61BB6197F82B30FB75FB693B6130
:1019F0003A69234B13445B02FB60FB7D013B032BE5
:101A00002ED801A252F823F03D1A40004F1A400090
:101A1000191A40002B1A4000FB68BA69C3F8C420A9
:101A2000FB68BA69C3F8D0201FE0FB68BA69C3F845
:101A3000C420FB68BA69C3F8D42016E0FB68BA6911
:101A4000C3F8C020FB68BA69C3F8D0200DE0FB687A
:101A5000BA69C3F8C020FB68BA69C3F8D42004E0AF
:101A6000FB68BA69C3F8B42003E0FB68BA69C3F83D
:101A7000B02000BF3437BD465DF8047B704700BF1F
:101A80000707200080B400AFBFF34F8FBFF36F8F05
:101A90000C4A0C4BD3F8903223F00103C2F8903279
:101AA000084A084BD3F8943223F00103C2F8943269
:101AB000BFF34F8FBFF36F8F00BFBD465DF8047B50
:101AC000704700BF00ED00E080B500AF134B4FF44E
:101AD00000425A60124B9847124B9847124B134AD8
:101AE0005A60114B124A5A60124B9847124B984752
:101AF00001214820114B984701214820104B98475D
:101B000000210B200D4B984788210B200D4B984747
:101B100002210B200C4B984700BF80BD50180E408F
:101B200081164000B9164000000C0E400C08005A07
:101B30000C07005A851A400079174000C118400070
:101B400049194000A5174000B519400080B485B080
:101B500000AFF860B9607A607B68002B03D0FB6847
:101B6000BA685A6602E0FB68BA681A6600BF1437A2
:101B7000BD465DF8047B704780B485B000AFF86067
:101B8000B9607A60FB68BA68C3F884207B685B0040
:101B90004FF40042B2FBF3F3013BC3F30D02FB68C9
:101BA000C3F88C2000BF1437BD465DF8047B704736
:101BB00080B483B000AF786039607B683A681A639C
:101BC00000BF0C37BD465DF8047B704780B483B01E
:101BD00000AF786039607B683A685A6300BF0C37A1
:101BE000BD465DF8047B704780B487B000AFF860F5
:101BF000B9607A60BB68B3F1405F03D0BB68B3F1F2
:101C0000605F03D1FB689B6B7B6102E0FB68DB6B71
:101C10007B617A697B681340002B01D1002300E0CF
:101C2000012318461C37BD465DF8047B704780B41D
:101C300087B000AFF860B9607A60FB687A685A6470
:101C4000BB68B3F1C05F4AD0B3F1C05F08D8B3F14D
:101C5000006F16D0B3F1805F2CD0002B69D064E008
:101C6000B3F1205F65D0B3F1205F03D8B3F1005F1B
:101C70004AD05AE0B3F1405F5BD0B3F1605F58D017
:101C800053E0FB681B6F7B61FB681A6F7B68D9436D
:101C90007B690B401A40FB681A67FB685B6F7B61CE
:101CA000FB685A6F7B68D9437B690B401A40FB681D
:101CB0005A673AE0FB681B6F7B617A687B691A435D
:101CC000FB681A67FB685B6F7B61FB685A6F7B6818
:101CD000D9437B690B401A40FB685A6725E0FB68D3
:101CE0001B6F7B61FB681A6F7B68D9437B690B4074
:101CF0001A40FB681A67FB685B6F7B617A687B69D7
:101D00001A43FB685A6710E0FB681B6F7B617A68B7
:101D10007B691A43FB681A67FB685B6F7B617A68B3
:101D20007B691A43FB685A6700BFFB687A685A6090
:101D300000E000BF1C37BD465DF8047B7047000023
:101D400080B584B000AFF860B9607A60B968F868AF
:101D5000194B98477B6803F001031A46B968F86885
:101D6000164B98477B6803F00A03002B03D0FB68EF
:101D7000BA681A6202E0FB68BA685A627B6803F0CC
:101D80000203002B04D0FB68BA68C3F8802008E087
:101D90007B6803F00803002B03D0FB68BA68C3F824
:101DA0008420FB68BA685A61FB68BA681A6000BF91
:101DB0001037BD4680BD00BF791F40004D1B40005D
:101DC00080B584B000AFF860B9607A603B60B968F4
:101DD000F868124B9847BA69B968F868104B984789
:101DE0003B68002B03D0FB68BA681A6502E0FB6809
:101DF000BA685A657B68002B03D0FB68BA681A631F
:101E000002E0FB68BA685A63FB68BA681A61FB684B
:101E1000BA681A6000BF1037BD4680BD791F400008
:101E20004D1B400090B587B002AFF860B9607A6092
:101E30003B60BB68B3F1005F16D0B3F1005F09D817
:101E4000B3F1805F10D0B3F1C05F0DD0B3F1006F7C
:101E50000AD03DE0B3F1405F1AD0B3F1605F17D014
:101E6000B3F1205F0ED033E07A68B968F8681C4B94
:101E700098473B6803F001031A467968F868194BE4
:101E8000984727E03A687968F868174B984721E047
:101E9000BB68B3F1605F0CBF01230023DBB21A46BD
:101EA0003B6803F00403002B14BF01230023DBB2C3
:101EB00019463B6803F00103002B14BF01230023E4
:101EC000DBB200930B467968F868084CA04701E044
:101ED000002300E0012318461437BD4690BD00BF23
:101EE0002F1C40004D1B4000411D4000C11D400003
:101EF00080B485B000AFF860B9607A607B6803F0A9
:101F00001003002B20D0FB68BA68C3F8B0207B68B0
:101F100003F02003002B04D0FB68BA68C3F8D42078
:101F200003E0FB68BA68C3F8D0207B6803F0400385
:101F3000002B04D0FB68BA68C3F8C02008E0FB6837
:101F4000BA68C3F8C42003E0FB68BA68C3F8B420D9
:101F500000BF1437BD465DF8047B704780B483B082
:101F600000AF786039607B683A681A6400BF0C374C
:101F7000BD465DF8047B704780B483B000AF7860E5
:101F800039607B683A685A6400BF0C37BD465DF81B
:101F9000047B704780B483B000AF78607B68DB6CF3
:101FA00018460C37BD465DF8047B704780B483B09B
:101FB00000AF78607B689B6C18460C37BD465DF8B7
:101FC000047B704780B584B000AF78603960786872
:101FD000264B9847F8607868254B98470246FB687F
:101FE0001340FB60FB68002B3CD00023BB6034E057
:101FF000204ABB681B0113441A683B689A4226D1E9
:102000001C4ABB681B01134404331A68FB68134065
:10201000002B1CD0174ABB681B0113440C331B68F0
:102020001449BA6812010A4410681249BA681201C8
:102030000A4404321268114698470E4ABB681B01D5
:10204000134404331B68DB43FA681340FB60BB682E
:102050000133BB60BB68062B03D8FB68002BC7D1DC
:1020600000E000BF00BF1037BD4680BD951F400097
:10207000AD1F4000F00B402080B586B000AFF86087
:10208000B9607A603B60214B1B68062B01D90123A4
:1020900038E00023FB7511E0FB7D1B011C4A134453
:1020A0003B613B691A68BB689A4204D13B695A6834
:1020B0007B689A4208D0FB7D0133FB75FA7D134B98
:1020C0001B689A42E8D900E000BF3B69BA681A6011
:1020D0003B697A685A603B693A689A603B693A6A38
:1020E000DA60FA7D094B1B6801339A4204D1074B31
:1020F0001B680133054A13603A687968F868054B34
:102100009847002318461837BD4680BD600C402014
:10211000F00B4020F11E400080B500AF0A210248BC
:10212000024B984700BF80BD000E0E40C51F400007
:1021300080B500AF0B210248024B984700BF80BD1D
:1021400000100E40C51F400080B500AF0C210248B2
:10215000024B984700BF80BD00120E40C51F4000D3
:1021600080B500AF10210248024B984700BF80BDE8
:1021700000140E40C51F400080B500AF1121024879
:10218000024B984700BF80BD00160E40C51F40009F
:1021900080B483B000AF78607B68013B032B1AD812
:1021A00001A252F823F000BFB9214000BF21400036
:1021B000C7214000CF21400000237B600EE04FF498
:1021C00080737B600AE04FF440737B6006E04FF45D
:1021D00000737B6002E000237B6000BF0A490A4B6A
:1021E0001B6B23F440727B6813430B6300BF064BE9
:1021F0009B6E03F00803002BF9D000BF0C37BD46DF
:102200005DF8047B704700BF00060E4080B485B0C7
:1022100000AF78601D491D4B1B6B23F070027B687B
:1022200013430B634FF48053FB6007E0FB68002B04
:1022300001D1012323E0FB68013BFB60134B9B6E44
:1022400003F00803002BF1D0104A104B1B6B23F056
:10225000030343F0020313634FF48053FB6007E072
:10226000FB68002B01D1012309E0FB68013BFB6007
:10227000064B9B6E03F00803002BF1D00023184699
:102280001437BD465DF8047B704700BF00060E4062
:1022900080B483B000AF78607B68012B05D107491B
:1022A000064B9A68064B13438B60044B054A1A6031
:1022B00000BF0C37BD465DF8047B704710180E4018
:1022C000000010A5080000A580B400AF094B5B69B1
:1022D00003F08003002B07D0074B9B6E03F08003B5
:1022E000002B01D0012300E000231846BD465DF815
:1022F000047B704710180E4000060E4080B483B077
:1023000000AF78601549154B1A6A154B13430B62E1
:1023100000BF124B9B6E03F40033002BF9D00F4922
:102320000E4B1A6A0F4B13407A68134343F45C1345
:102330000B6200BF094B9B6E03F40033002BF9D0F6
:102340000649064B1A6A084B134043F45C130B62B0
:1023500000BF0C37BD465DF8047B704700060E4099
:10236000080037008FFFC8FFFFFFC8FE80B483B0AE
:1023700000AF786039607B68002B08D01349134B9D
:102380001B6A134A1A40134B13430B6218E00F49A0
:102390000E4B1A6A104B13403A68120292B21A435B
:1023A0000E4B13430B6200BF084B9B6E03F00103FF
:1023B000002BF9D00549054B1A6A094B13430B62F0
:1023C00000BF0C37BD465DF8047B704700060E4029
:1023D000FCFFC8FE02003701FCFFC8FF0100370008
:1023E0000000370180B400AF044B9B6E03F48033D0
:1023F0001846BD465DF8047B704700BF00060E40DE
:1024000080B400AF044B4FF000529A6200BFBD464B
:102410005DF8047B704700BF00060E4080B400AF3B
:10242000044B9B6E03F002031846BD465DF8047B27
:10243000704700BF00060E4080B400AF044B9B6E97
:1024400003F040031846BD465DF8047B704700BFAB
:1024500000060E4080B483B000AF78607B683F2BED
:1024600001D901232FE07B681F2B13D8194B9A69E0
:1024700001217B6801FA03F31A4001217B6801FA0C
:1024800003F39A421ED0134A01217B6801FA03F339
:10249000136117E07B68203B7B600E4BD3F808216B
:1024A00001217B6801FA03F31A4001217B6801FADC
:1024B00003F39A4206D0074A01217B6801FA03F32D
:1024C000C2F80031002318460C37BD465DF8047B86
:1024D000704700BF00060E4080B483B000AF786044
:1024E000044A7B68136000BF0C37BD465DF8047B6F
:1024F000704700BF1C00402080B483B000AF204B69
:102500001B6F7B607B6823F4C0037B607B6843F4B4
:1025100080037B601A4A7B6813671949184B1A6A53
:10252000184B13430B6200BF154B9B6E03F008035F
:10253000002BF9D000237B6003E000BF7B680133F0
:102540007B607B68B3F5FA7FF7D300BF0C4B1B6A47
:1025500003F00803002BF9D0094B1B6F7B607B68ED
:1025600023F4C0037B607B6843F480037B60044AF0
:102570007B68136700BF0C37BD465DF8047B70476E
:1025800000060E400400370090B599B000AF7860A7
:102590007B68013B042B00F2A58101A252F823F0D5
:1025A000B5254000B5254000D5254000D525400083
:1025B000C3284000724A724B1B6923F00403136165
:1025C000704B01221A70BFF35F8F62B6BFF34F8F5B
:1025D00030BF87E17B68032B03D100206A4B98470B
:1025E00003E04FF40010684B984772B6BFF35F8F5B
:1025F000644B00221A70654B01221A707B68042B11
:102600000CBF01230023DAB207F11C033B6407F17E
:102610001803FB6307F11403BB6307F110037B632B
:1026200007F10C033B63134687F82F30584B1B6AA6
:10263000BB62574B1B6B7B62564B1B683B623B6C10
:10264000002B02D03B6CBA6A1A60FB6B002B03D0E4
:102650004F4B9A6AFB6B1A60BB6B002B02D0BB6BB3
:1026600000221A607B6B002B02D07B6B7A6A1A60A7
:102670003B6B002B02D03B6B3A6A1A604449BA6A42
:10268000454B13430B627B6A03F00303012B0ED906
:102690007B6A23F0030343F001037B623C4A7B6ABD
:1026A00013633B4B9B6E03F00803002BF9D07B6A4E
:1026B00003F07003002B0CD07B6A23F070037B6265
:1026C000334A7B6A1363324B9B6E03F00803002B83
:1026D000F9D0324B98472E4B9B6E03F40033002BFE
:1026E000F9D02B492A4B1A6A2D4B134043F45C1343
:1026F0000B62274B9B6E03F48033002BF9D0254AE5
:102700003B6A23F47063136097F82F30002B07D0D7
:102710001F491F4B1A6A234B134043F45C130B628F
:10272000184B01221A70BFF35F8F62B61E4B984799
:1027300072B6BFF35F8F134B00221A70FC69B86941
:1027400079693A69FB68FC65B86579653A65FB6447
:102750000023BB64FB6D03F00203002B2CD00C495B
:102760000B4B1B6A114A1A40114B13430B62084969
:10277000074B1A6A0F4B134043F45C130B624EE095
:1027800000ED00E018004020D9244000640C4020F7
:1027900000060E40000C0E400800370001244000E7
:1027A000FFFFC8FEFEFFC8FFF9244000FCFFC8FE83
:1027B0000200370187FFC8FFFB6D03F00103002B08
:1027C0002DD04A4B1B6A03F00103002B0DD1474962
:1027D000464B1B6A464A1A40464B13430B62434B17
:1027E0009B6E03F00103002BF9D0404B1B6A03F0F2
:1027F0008073002B0BD13D493C4B1A6A3E4B13436F
:102800000B623A4B9B6E03F48033002BF9D03749AF
:10281000364B1A6A394B134043F45C130B62BA6DA2
:10282000374B1340002B08D0304ABB6D43F00053A8
:102830009362BB6C43F00203BB643B6D03F0030384
:10284000022B05D1294B9B6E03F00203002BF9D01C
:10285000264B1B6B7B6425497B6C23F070023B6D20
:1028600003F0700313430B63204B9B6E03F00803CC
:10287000002BF9D0234AFB6C13601C4A3B6D136399
:102880001A4B9B6E03F00803002BF9D0174B9A6E7E
:10289000BB6C1340002BF9D01B4B00221A701B4B52
:1028A0001B68002B05D0194B1B689847174B00225B
:1028B0001A60174B01221A70BFF35F8F62B600BF18
:1028C00010E0144A134B1B6943F004031361124BCD
:1028D000124A1A600E4B01221A70BFF35F8F62B664
:1028E00030BF00BF00BF6437BD4690BD00060E403C
:1028F000FCFFC8FF010037000000370187FFC8FF59
:102900000000FF07000C0E40640C4020680C4020C3
:102910001800402000ED00E010180E40040000A553
:1029200080B483B000AFEFF310837B607B68002B33
:102930000CBF01230023DBB23B6072B6BFF35F8F95
:10294000044B00221A703B6818460C37BD465DF8F0
:10295000047B70471800402080B483B000AF7860DB
:102960007B68002B14BF01230023DBB218460C3711
:10297000BD465DF8047B704780B582B000AF7860DB
:102980007868074B98470346002B05D0054B01227A
:102990001A70BFF35F8F62B600BF0837BD4680BDB7
:1029A000592940001800402080B584B000AF1E4B6C
:1029B000FB601E4BBB60FA68BB689A420CD007E014
:1029C000BB681A1DBA60FA68111DF96012681A60B6
:1029D000BB68174A9342F3D3164BBB6004E0BB6855
:1029E0001A1DBA6000221A60BB68134A9342F6D3DC
:1029F000124BFB60124AFB6823F07F039360114B7C
:102A000098477860104A104B1B6843F470031360BA
:102A1000BFF34F8FBFF36F8F78680C4B98470C4B09
:102A200098470C4B9847FEE7048A4000000040207E
:102A3000D0094020D0094020D00C402000004000A8
:102A400000ED00E02129400088ED00E079294000F8
:102A5000D53E40009531400080B400AFFEE7000055
:102A600080B400AF524B1B6B03F00303012B14D057
:102A7000012B02D3022B38D07AE04E4B5B6903F076
:102A80008003002B04D04C4B4FF400421A606FE0DF
:102A9000494B4FF4FA421A606AE0454B1B6A03F057
:102AA0008073002B03D0444B444A1A6060E0424BD1
:102AB000434A1A603E4B1B6A03F07003102B04D08C
:102AC000202B08D0002B0ED00EE03B4B1B685B0088
:102AD000394A136008E0384B1A6813465B00134408
:102AE000354A136000E000BF42E0314B1B6A03F03F
:102AF0008073002B03D0304B304A1A601CE02E4B01
:102B00002F4A1A602A4B1B6A03F07003102B04D063
:102B1000202B08D0002B0ED00EE0274B1B685B004B
:102B2000254A136008E0244B1A6813465B001344DF
:102B3000214A136000E000BF1D4B1B6B03F0030331
:102B4000022B14D11A4B9B6A1B0CC3F30A030133EB
:102B5000194A126802FB03F3174A1360144B9B6A6D
:102B6000DBB2154A1268B2FBF3F3134A136000BFDD
:102B70000F4B1B6B03F07003702B08D10E4B1B68BF
:102B8000104AA2FB03235B080B4A13600AE0084BC0
:102B90001B6B1B0903F00703074A126822FA03F3B1
:102BA000054A136000BFBD465DF8047B704700BF57
:102BB00000060E4010180E4020004020001BB700F9
:102BC00000093D00ABAAAAAA80B483B000AF786028
:102BD0007B681D4A934204D81C4B4FF080621A60F8
:102BE0002BE07B681A4A934203D8184B194A1A60A3
:102BF00023E07B68184A934203D8144B174A1A60A3
:102C00001BE07B68164A934203D8104B154A1A60A2
:102C100013E07B68144A934204D80C4B4FF0042213
:102C20001A600AE07B68114A934203D8074B104AA6
:102C30001A6002E0054B0F4A1A6000BF0C37BD4610
:102C40005DF8047B704700BFBFF35E01000C0E40CF
:102C50007FE7BD02000100043FDB1C04000200040A
:102C6000FFCE7B0500030004BFC2DA067FB6390839
:102C7000000500040006000480B485B000AF786051
:102C8000104BFB60104B1B68002B02D10E4B0F4A00
:102C90001A600D4B1B68BB60BA687B681A44FB68FE
:102CA0009A4202DD4FF0FF3306E0074B1A687B685B
:102CB0001344054A1360BB6818461437BD465DF8D7
:102CC000047B7047FCFF45206C0C4020D02E402038
:102CD00080B483B000AF0346FB71094997F9073010
:102CE0005B09FA7902F01F02012000FA02F241F8B2
:102CF000232000BF0C37BD465DF8047B704700BF42
:102D000000E100E080B483B000AF03463960FB719E
:102D100097F90730002B0BDA0D49FB7903F00F030D
:102D2000043B3A68D2B25201D2B20B441A7609E09F
:102D3000084997F907303A68D2B25201D2B20B442F
:102D400083F8002300BF0C37BD465DF8047B704755
:102D500000ED00E000E100E080B483B000AF7860F7
:102D60007B68072B25D801A252F823F08D2D400057
:102D7000932D4000992D40009F2D4000A32D400031
:102D8000A72D4000AB2D4000AF2D40004FF4FA437B
:102D900010E04FF400430DE04FF400430AE0084B0D
:102DA00008E0084B06E0084B04E0074B02E0064B46
:102DB00000E0002318460C37BD465DF8047B7047E1
:102DC00000093D0000127A00001BB70080B500AF7B
:102DD0000620054B9847024613469B0013449A0071
:102DE0001344184680BD00BF592D400080B500AF88
:102DF000024B98470346184680BD00BFCD2D4000CA
:102E000080B500AF4FF080524FF020510748084B7B
:102E100098470346002B03D0064B00221A7002E0AD
:102E2000044B01221A7000BF80BD00BF00140E4089
:102E3000E91B4000700C402080B400AF084B1B78A9
:102E4000DBB2002B03D1064B01221A7002E0044BC7
:102E500000221A7000BFBD465DF8047B704700BFBA
:102E6000710C402080B400AF034B01221A7000BFE8
:102E7000BD465DF8047B7047720C4020F0B587B00A
:102E800002AF786039600023FB60BBE0012162483B
:102E9000624B98473B680133022B28D93B68002BD3
:102EA00000DA01335B101D464FEAE5765C4B98472C
:102EB00003464FF0000403FB06F105FB04F20A444D
:102EC000A5FB03342244144656494FF000025D1816
:102ED00044EB020628463146534C544A4FF0000357
:102EE000A04703460C461846514B984716E04C4BFA
:102EF000984703464FF000044A494FF000025D181E
:102F000044EB020628463146474C484A4FF000033E
:102F1000A04703460C461846454B9847454B1B783F
:102F2000DBB2012B73D0444B1B78DBB2012B6ED08C
:102F300001213948414B98473B680133022B28D97E
:102F40003B68002B00DA01335B101D464FEAE57643
:102F5000334B984703464FF0000403FB06F105FB93
:102F600004F20A44A5FB0334224414462D494FF0D1
:102F700000025D1844EB0206284631462A4C2B4AD3
:102F80004FF00003A04703460C461846284B9847CD
:102F900016E0234B984703464FF0000421494FF0B9
:102FA00000025D1844EB0206284631461E4C1F4ABB
:102FB0004FF00003A04703460C4618461C4B9847A9
:102FC0001C4B1B78DBB2012B21D01B4B1B78DBB2D7
:102FD000012B1CD0002300930A231E2214210A2057
:102FE000174CA0477B68DAB2FB68DBB2D31ADAB2BF
:102FF000012300930A2314210A20114CA047FB68E7
:103000000133FB60FA687B689A427FF73FAF00BFED
:103010001437BD46F0BD00BF000E0E40CD1B400072
:10302000ED2D4000DF835A00C53B4000E0835A008D
:1030300001004020700C4020710C4020B11B40006A
:10304000C906400090B583B002AF0A20434B9847B1
:10305000002301224FF060514148424CA04710200C
:103060003E4B98470C203D4B98470A203B4B9847D6
:1030700009234FF080524FF020513B48394CA04774
:103080003C224FF080513848384B984709234FF085
:1030900000424FF020513648324CA0473C224FF0BE
:1030A00000413348314B984709234FF400224FF039
:1030B00020512B482B4CA0473C224FF4002128489C
:1030C0002A4B98472B4B009340234FF080521021FE
:1030D0002548294CA047294B009370234FF000420C
:1030E0000C212348244CA047254B009370234FF418
:1030F00000220A211A48204CA0474FF080511A485C
:10310000204B98471848204B98474FF000411848EB
:103110001C4B984716481C4B98474FF40021104809
:10312000184B98470E48184B98471020174B984754
:1031300004211020164B98470C20144B984704216B
:103140000C20134B98470A20104B984704210A2063
:103150000F4B984700BF0437BD4690BD5524400033
:10316000000E0E40251E400000140E40791B40004A
:1031700000120E40012E400079204000392E400000
:10318000652E40005D1F4000951F4000D12C40007F
:10319000052D40002DE9F04F8DB002AF4FF0000239
:1031A000754BC7E90823754ED7E908234FF0000097
:1031B0007349B04702460B46704E4FF000006E490F
:1031C000B04702460B46C7E906234FF000024FF016
:1031D0000003C7E904236B4B98476B4B98476B4B35
:1031E00098476B4B98473846D7E9082369496A4E98
:1031F000B0473846694B00220021694EB047384637
:10320000D7E908236349644EB0473846634B002230
:103210000021634EB047634B1B78DBB2012B70D1AA
:10322000614B9847034618464FF0000102460B4693
:103230004FEA830949EA92794FEA820842464B46AF
:10324000121843EB01031D0145EA12751401A41A7B
:1032500065EB03054FEA850B4BEA947B4FEA840A42
:1032600054465D462046294641F22B724FF000033A
:10327000801841EB03014D4E41F22C724FF00003D8
:10328000B04702460B4613461846494B9847454BF4
:103290001B78DBB2012B0BD1464E4FF00002464BA0
:1032A000D7E90801B04702460B46C7E908230AE000
:1032B000424E4FF00002404BD7E90801B0470246AA
:1032C0000B46C7E908233846D7E908233149324E6F
:1032D000B0473846314B00220021314EB047274ECF
:1032E000D7E908234FF000002549B04702460B46B6
:1032F000224E4FF000002049B04702460B46C7E976
:1033000006232F4B1B78DBB2012B0DD12B4E4FF038
:103310000002294BD7E90801B04702460B46C7E92E
:103320000823274B00221A70264B1B78DBB2002B98
:1033300017D11E23FB60244BD7E9060198470346AB
:103340001946F868214B9847002300930A231E2250
:1033500014210A201E4EB04701211E481E4B9847DB
:103360004DE7104B1B78DBB2002B7FF448AF0220F7
:103370001A4B984743E700BF00408F40A5394000F3
:103380000000F03FC91A40000516400045304000DB
:103390005109400048874000C13F40000C004020D8
:1033A0004D084000700C4020ED2D4000C53B400012
:1033B00001004020ED33400000005940E933400057
:1033C000720C4020710C4020753B40007D2E400067
:1033D000C9064000000E0E40B11B40008925400088
:1033E00081F0004102E000BF83F0004330B54FEAB6
:1033F00041044FEA430594EA050F08BF90EA020F23
:103400001FBF54EA000C55EA020C7FEA645C7FEAB5
:10341000655C00F0E2804FEA5454D4EB5555B8BFD8
:103420006D420CDD2C4480EA020281EA030382EA49
:10343000000083EA010180EA020281EA0303362DDB
:1034400088BF30BD11F0004F4FEA01314FF4801CAE
:103450004CEA113102D0404261EB410113F0004FC0
:103460004FEA03334CEA133302D0524263EB430377
:1034700094EA050F00F0A780A4F10104D5F1200E15
:103480000DDB02FA0EFC22FA05F2801841F1000170
:1034900003FA0EF2801843FA05F359410EE0A5F144
:1034A00020050EF1200E012A03FA0EFC28BF4CF075
:1034B000020C43FA05F3C01851EBE37101F000452B
:1034C00007D54FF0000EDCF1000C7EEB00006EEB38
:1034D0000101B1F5801F1BD3B1F5001F0CD34908C2
:1034E0005FEA30004FEA3C0C04F101044FEA445219
:1034F00012F5800F80F09A80BCF1004F08BF5FEAA0
:10350000500C50F1000041EB045141EA050130BD7F
:103510005FEA4C0C404141EB010111F4801FA4F122
:103520000104E9D191F0000F04BF01460020B1FA77
:1035300081F308BF2033A3F10B03B3F120020CDAAF
:103540000C3208DD02F1140CC2F10C0201FA0CF08D
:1035500021FA02F10CE002F11402D8BFC2F1200CF2
:1035600001FA02F120FA0CFCDCBF41EA0C019040A8
:10357000E41AA2BF01EB0451294330BD6FEA0404F1
:103580001F3C1CDA0C340EDC04F11404C4F12002DC
:1035900020FA04F001FA02F340EA030021FA04F3EE
:1035A00045EA030130BDC4F10C04C4F1200220FA45
:1035B00002F001FA04F340EA0300294630BD21FA83
:1035C00004F0294630BD94F0000F83F4801306BF49
:1035D00081F480110134013D4EE77FEA645C18BF3D
:1035E0007FEA655C29D094EA050F08BF90EA020FD4
:1035F00005D054EA000C04BF1946104630BD91EACC
:10360000030F1EBF0021002030BD5FEA545C05D1CE
:103610004000494128BF41F0004130BD14F580040D
:103620003CBF01F5801130BD01F0004545F0FE4181
:1036300041F470014FF0000030BD7FEA645C1ABFB6
:10364000194610467FEA655C1CBF0B46024650EAED
:10365000013406BF52EA033591EA030F41F4002119
:1036600030BD00BF90F0000F04BF0021704730B59F
:103670004FF4806404F132044FF000054FF0000174
:1036800050E700BF90F0000F04BF0021704730B535
:103690004FF4806404F1320410F0004548BF40420A
:1036A0004FF000013EE700BF42004FEAE2014FEA5F
:1036B00031014FEA02701FBF12F07F4393F07F4F3A
:1036C00081F06051704792F0000F14BF93F07F4F6C
:1036D000704730B54FF4607401F0004521F00041AF
:1036E00020E700BF50EA010208BF704730B54FF035
:1036F00000050AE050EA010208BF704730B511F03A
:10370000004502D5404261EB41014FF4806404F171
:1037100032045FEA915C3FF4DCAE4FF003025FEAF3
:10372000DC0C18BF03325FEADC0C18BF033202EB7B
:10373000DC02C2F1200300FA03FC20FA02F001FAD5
:1037400003FE40EA0E0021FA02F11444C1E600BF74
:1037500070B54FF0FF0C4CF4E06C1CEA11541DBF27
:103760001CEA135594EA0C0F95EA0C0F00F0DEF8F2
:103770002C4481EA030621EA4C5123EA4C5350EAD7
:10378000013518BF52EA033541F4801143F4801328
:1037900038D0A0FB02CE4FF00005E1FB02E506F0B9
:1037A0000042E0FB03E54FF00006E1FB03569CF00E
:1037B000000F18BF4EF0010EA4F1FF04B6F5007F14
:1037C00064F5407404D25FEA4E0E6D4146EB060686
:1037D00042EAC62141EA55514FEAC52040EA5E500F
:1037E0004FEACE2EB4F1FD0C88BFBCF5E06F1ED8B9
:1037F000BEF1004F08BF5FEA500E50F1000041EBF0
:10380000045170BD06F0004646EA010140EA02009C
:1038100081EA0301B4EB5C04C2BFD4EB0C0541EABE
:10382000045170BD41F480114FF0000E013C00F3D3
:10383000AB8014F1360FDEBF002001F0004170BDF7
:10384000C4F10004203C35DA0C341BDC04F1140410
:10385000C4F1200500FA05F320FA04F001FA05F29C
:1038600040EA020001F0004221F0004110EBD37069
:1038700021FA04F642EB06015EEA430E08BF20EA95
:10388000D37070BDC4F10C04C4F1200500FA04F338
:1038900020FA05F001FA04F240EA020001F00041CA
:1038A00010EBD37041F100015EEA430E08BF20EA3D
:1038B000D37070BDC4F1200500FA05F24EEA020E85
:1038C00020FA04F301FA05F243EA020321FA04F0B4
:1038D00001F0004121FA04F220EA020000EBD3706B
:1038E0005EEA430E08BF20EAD37070BD94F0000F6B
:1038F0000FD101F00046400041EB010111F4801F9F
:1039000008BF013CF7D041EA060195F0000F18BF4F
:10391000704703F00046520043EB030313F4801F8B
:1039200008BF013DF7D043EA0603704794EA0C0F45
:103930000CEA135518BF95EA0C0F0CD050EA41065B
:1039400018BF52EA4306D1D181EA030101F00041D8
:103950004FF0000070BD50EA410606BF1046194600
:1039600052EA430619D094EA0C0F02D150EA01360C
:1039700013D195EA0C0F05D152EA03361CBF10464D
:1039800019460AD181EA030101F0004141F0FE41EC
:1039900041F470014FF0000070BD41F0FE4141F470
:1039A000780170BD70B54FF0FF0C4CF4E06C1CEA70
:1039B00011541DBF1CEA135594EA0C0F95EA0C0F25
:1039C00000F0A7F8A4EB050481EA030E52EA0335E0
:1039D0004FEA013100F088804FEA03334FF0805501
:1039E00045EA131343EA12634FEA022245EA11152E
:1039F00045EA10654FEA00260EF000419D4208BFDF
:103A0000964244F1FD0404F5407402D25B084FEA8B
:103A10003202B61A65EB03055B084FEA32024FF437
:103A200080104FF4002CB6EB020E75EB030E22BF94
:103A3000B61A754640EA0C005B084FEA3202B6EB54
:103A4000020E75EB030E22BFB61A754640EA5C0003
:103A50005B084FEA3202B6EB020E75EB030E22BF93
:103A6000B61A754640EA9C005B084FEA3202B6EB94
:103A7000020E75EB030E22BFB61A754640EADC0053
:103A800055EA060E18D04FEA051545EA16754FEAB5
:103A900006164FEAC30343EA52734FEAC2025FEAD3
:103AA0001C1CC0D111F4801F0BD141EA00014FF062
:103AB00000004FF0004CB6E711F4801F04BF014333
:103AC0000020B4F1FD0C88BFBCF5E06F3FF6AFAE4F
:103AD000B5EB030C04BFB6EB020C5FEA500C50F1DF
:103AE000000041EB045170BD0EF0004E4EEA113162
:103AF00014EB5C04C2BFD4EB0C0541EA045170BD69
:103B000041F480114FF0000E013C90E645EA060EAC
:103B10008DE60CEA135594EA0C0F08BF95EA0C0FDA
:103B20003FF43BAF94EA0C0F0AD150EA01347FF422
:103B300034AF95EA0C0F7FF425AF104619462CE7F9
:103B400095EA0C0F06D152EA03353FF4FDAE10465C
:103B5000194622E750EA410618BF52EA43067FF4AD
:103B6000C5AE50EA41047FF40DAF52EA43057FF43D
:103B7000EBAE12E74FEA410212F5001215D211D551
:103B80006FF47873B3EB625212D94FEAC12343F05A
:103B9000004343EA505311F0004F23FA02F018BFDC
:103BA000404270474FF00000704750EA013005D1A5
:103BB00011F0004008BF6FF0004070474FF0000068
:103BC000704700BF53B94AB9002908BF00281CBF7D
:103BD0004FF0FF314FF0FF3000F07AB9ADF1080C33
:103BE0006DE904CE00F006F8DDF804E0DDE902231B
:103BF00004B070472DE9F0478C460D460446089EF8
:103C0000002B51D18A4217466DD9B2FA82FEBEF11D
:103C1000000F0BD0CEF1200C01FA0EF520FA0CFCAF
:103C200002FA0EF74CEA050C00FA0EF44FEA174AB6
:103C3000250CBCFBFAF81FFA87F90AFB18CC45EAF9
:103C40000C4508FB09F3AB420AD9ED1908F1FF3224
:103C500080F02381AB4240F22081A8F102083D446C
:103C6000ED1AA4B2B5FBFAF00AFB105544EA05447C
:103C700000FB09F9A14509D9E41900F1FF3380F0EF
:103C80000A81A14540F2078102383C44A4EB0904B3
:103C900040EA08400021002E61D024FA0EF40023EF
:103CA00034607360BDE8F0878B4207D9002E54D092
:103CB000002186E821000846BDE8F087B3FA83F1C9
:103CC000002940F08E80AB4202D3824200F2FA809B
:103CD000841A65EB03050120AC46002E3FD086E830
:103CE0001010BDE8F08712B90127B7FBF2F7B7FA59
:103CF00087FEBEF1000F34D1EB1B3A0C1FFA87FC94
:103D00000121B3FBF2F8250C02FB183345EA034509
:103D10000CFB08F3AB4207D9ED1908F1FF3002D2D2
:103D2000AB4200F2D1808046ED1AA3B2B5FBF2F0AF
:103D300002FB105543EA05440CFB00FCA44507D9DF
:103D4000E41900F1FF3302D2A44500F2B88018460E
:103D5000A4EB0C0440EA08409DE731463046BDE83C
:103D6000F087CEF1200405FA0EF307FA0EF720FAD9
:103D700004F83A0C25FA04F448EA0308B4FBF2F11B
:103D80004FEA184502FB11441FFA87FC45EA044537
:103D900001FB0CF3AB4200FA0EF409D9ED1901F165
:103DA000FF3080F08A80AB4240F2878002393D4488
:103DB000EB1A1FFA88F5B3FBF2F002FB103345EA69
:103DC000034500FB0CF3AB4207D9ED1900F1FF38B6
:103DD0006FD2AB426DD902383D44EB1A40EA014143
:103DE0008FE7C1F1200722FA07F88B4005FA01F4AA
:103DF00048EA030320FA07FE4FEA134CFD404EEA5F
:103E0000040EB5FBFCF94FEA1E440CFB19551FFAD2
:103E100083F844EA054509FB08F4AC4202FA01F2D2
:103E200000FA01FA08D9ED1809F1FF3043D2AC428B
:103E300041D9A9F102091D442D1B1FFA8EFEB5FBC5
:103E4000FCF00CFB10554EEA054400FB08F8A045B9
:103E500007D9E41800F1FF3529D2A04527D9023847
:103E60001C4440EA0940A4EB0804A0FB02894C452D
:103E7000C6464D4615D312D056B1BAEB0E0364EBCD
:103E8000050404FA07F7CB401F43CC403760746049
:103E90000021BDE8F0871846F8E69046E0E6C24506
:103EA000EAD2B8EB020E69EB03050138E4E72846D5
:103EB000D7E7404691E78146BEE7014678E70238FA
:103EC0003C4445E7084608E7A8F102083D442BE7D3
:103ED000704700BF70B50F4E0F4D761BB61018BF60
:103EE000002405D0013455F8043B9847A642F9D187
:103EF0000A4E0B4D761B04F06FFDB61018BF002460
:103F000006D0013455F8043B9847A642F9D170BD5C
:103F100070BD00BFE4894000E4894000EC894000A6
:103F2000E489400070B4860746D0541E002A41D070
:103F3000CAB2034602E014F1FF343BD303F8012B6D
:103F40009D07F8D1032C2ED9CDB245EA05250F2CBB
:103F500045EA054519D903F110022646103E0F2EF9
:103F600042F8105C42F80C5C42F8085C42F8045CD1
:103F700002F11002F2D8A4F1100222F00F0204F0B4
:103F80000F041032032C13440DD91E462246043A66
:103F9000032A46F8045BFAD8221F22F003020432F7
:103FA000134404F003042CB1C9B21C4403F8011BF0
:103FB0009C42FBD170BC704714460346C2E700BF69
:103FC0000EB4F0B59CB021AB0F4953F8042B01930C
:103FD00005466FF00044086802954FF402774FF6EB
:103FE000FF7602A90695ADF8147004940794ADF815
:103FF000166000F00BF8029B00221A701CB0BDE89E
:10400000F04003B0704700BF240040202DE9F04F7E
:10401000C3B00C460B9192460F930C9002F00CFA31
:1040200003681A93184603F0EBF8A3891990190650
:1040300003D52369002B01F0038000230DF1C8098B
:104040001393159314932793269318931B93099313
:10405000CDF89490C846169317939AF800305446BA
:10406000E3B1252B02D119E0252B03D014F8013F31
:10407000002BF9D1A4EB0A0585B1269B279AC8F835
:1040800000A001332A44072BC8F804502792269336
:104090007FDC08F10808099B2B4409932378002B47
:1040A0007FD000231A468DF8773019460D939B4632
:1040B0004FF0FF3063780A9004F1010A0AF1010A17
:1040C000A3F12000582800F2C183DFE810F0380285
:1040D000BF03BF034002BF03BF03BF03BF03BF0350
:1040E000BF0345020302BF035D006B02BF038602EC
:1040F0009D039D039D039D039D039D039D039D03C0
:104100009D03BF03BF03BF03BF03BF03BF03BF03C1
:10411000BF03BF03BF0337035703BF035703BF03E7
:10412000BF03BF03BF039803BF03BF03AD03BF03B8
:10413000BF03BF03BF03BF035902BF03BF031E0377
:10414000BF03BF03BF03BF03BF03BF03BF03BF035F
:10415000BF03BF03C602DB025703570357038B029B
:10416000DB02BF03BF039002BF039D02CC01B40278
:104170000802BF03E101BF037E00BF03BF030D02BE
:104180000D980F9340420D904BF0040B9AF80030BD
:1041900094E725AA0B990C9803F0A0F840B9C846FB
:1041A00079E7279B23B10C980B9925AA03F096F881
:1041B0000B9B9B8913F0400F099B18BF4FF0FF33F7
:1041C0000993099843B0BDE8F08F1BF0200F1193BD
:1041D00040F0DD810F9A1BF0100F134640F06E8502
:1041E0001BF0400F00F06A8514880432002501237B
:1041F0000F9200278DF877700A994A1C00F06582AB
:104200002BF08002079254EA050240F064820029F4
:1042100040F03C84002B40F0D7841BF001030E9348
:1042200000F0048642AE302306F8413D0A9B0E9A08
:104230009342B8BF134608930023129317B1089B0B
:1042400001330893079B13F00203109302D0089BDD
:1042500002330893079B13F0840540F00E830D9BF7
:10426000089AA3EB020BBBF1000F40F30683BBF1EE
:10427000100F279C269A29DD43462146A846102781
:104280000C9C0B9D06E0ABF1100BBBF1100F03F182
:10429000080318DD0132B74826921031072A27910A
:1042A00083E88100EFDD25AA2946204603F016F8B1
:1042B00000287FF47DAFABF1100BBBF1100F2799F5
:1042C000269A4B46E6DC45460C4698460132A94BF9
:1042D00026925C44072A279488E8080800F398840B
:1042E0009DF8777008F1080877B1269B01330134F7
:1042F0000DF177010122072B2794269388E8060009
:1043000000F3DB8308F10808109B6BB1269B013397
:1043100002341EA90222072B2794269388E8060060
:1043200000F3D68308F10808802D00F015830A9B5E
:104330000E9A9F1A002F36DD102F269B8E4D27DDFB
:1043400042462146B0464FF0100B2E460C9C0B9D6A
:1043500004E0103F102F02F1080215DD0133103187
:10436000072B2791269382E84008F2DD25AA2946EB
:10437000204602F0B3FF00287FF41AAF103F102F41
:104380002799269B4A46E9DC35460C464646904628
:1043900001333C44072B2794269388E8A00000F3C0
:1043A000818308F10808079BDF0500F16882269BDE
:1043B0000E99C8F8006001330C44072B2794C8F805
:1043C0000410269300F34D8308F10808079B5B0750
:1043D0003AD50D9B089A9D1A002D35DD102D269B90
:1043E00020DD10260C9FDDF82CB004E0103D102DD0
:1043F00008F1080816DD01335E4A26931034072BB6
:10440000279488E84400F1DD25AA5946384602F091
:1044100065FF00287FF4CCAE103D102D279C269B15
:10442000C846E8DC0133534A26932C44072B2794D3
:1044300088E8240008DD25AA0B990C9802F04EFFAD
:1044400000287FF4B5AE279C099B0D9A08998A42F3
:10445000ACBF9B185B180993002C40F00D83002320
:104460002693C846F9E511931BF0200340F0E38141
:104470001BF0100240F02E841BF0400300F02A8451
:104480000F9913460A4604320C880F920025B0E6B5
:104490000F9A1193166800248DF87740151D002E91
:1044A00000F0A7860A9A531C00F009862146304680
:1044B00002F086FA002800F0E186831B0E930A942E
:1044C0000F95CDF81CB023EAE373089312949DF87E
:1044D0007770B3E69AF8003001222B21EEE54BF01D
:1044E000200B9AF80030E9E51193002A40F09587F7
:1044F000224B18931BF0200F40F011810F9A1BF0F4
:10450000100F134640F0E1831BF0400F00F0DD83F5
:10451000043314880F9300251BF0010F00F00C8169
:1045200054EA050300F0088130239DF844208DF8FB
:1045300078308DF879204BF0020B022359E69AF877
:10454000003000297FF4BAAD01222021B6E54BF0FE
:10455000010B9AF80030B1E50F9C23680D931846C3
:104560000028234603F10403FFF60AAE0F939AF8DE
:104570000030A3E598874000A88740007887400076
:104580004BF0100B1BF0200F11933FF423AE0F9D47
:10459000073525F0070303F10802D3E900450F9220
:1045A000012326E69AF800302A2B0AF1010400F0D4
:1045B0002787A3F130000928A24600F2AD86002328
:1045C0001C461AF8013B04EB840400EB4404A3F1FD
:1045D00030000928F5D90A9472E54BF0800B9AF85F
:1045E00000306BE54BF0400B9AF8003066E59AF826
:1045F00000306C2B03BF9AF801304BF0200B0AF10E
:10460000010A4BF0100B59E5002A40F011871BF00E
:10461000200F40F0F9841BF0100F40F0AC841BF029
:10462000400F00F0A8840F9A136804320F92BDF86F
:1046300024201A8011E50F99B34B0C68189330228F
:10464000782304318DF8793011934BF0020B0F91E0
:1046500000258DF878200223CBE50F9911930A6885
:104660008DF8A02000230A461F468DF877300432CB
:1046700001230893CDF81CB00A9712970F920E935E
:1046800028AEDFE51193002A40F0EA861BF0200FE8
:104690005DD11BF0100F40F008831BF0400F00F0BD
:1046A00004830F99B1F900400431E51722462B46E7
:1046B0000F91002A73F1000358DB0A999DF8777077
:1046C0004A1C4FF001037FF49BAD54EA050200F051
:1046D000DF81CDF81CB0012B00F07B82022B40F073
:1046E000068218984E46230904F00F0143EA057329
:1046F0002A091C461546435C06F8013D54EA0503A9
:10470000F1D1A9EB06030E9390E51193002A40F036
:10471000A3867E4B18931BF0200F3FF4EFAE0F9D46
:10472000073525F0070303F108021BF0010F0F9274
:10473000D3E900457FF4F4AE02235AE51193002A31
:1047400040F086864BF0100B1BF0200FA1D00F9D80
:10475000073525F00705D5E90023002A05F10801F2
:104760001D4673F100030F911446A6DA2D2764420B
:1047700065EB45058DF8777001233DE51193002A1F
:1047800040F062860F9D073525F0070303F108020C
:104790000F921A6815925B681493149B159D23F071
:1047A0000044284621464FF0FF32594B03F092FA5D
:1047B000002840F04A83284621464FF0FF32544BF0
:1047C00003F06AFA002840F0408315A80DC8149938
:1047D00003F058FA002840F030859DF877704D4E70
:1047E0004D4B2BF080000790119803220021089276
:1047F0000A914728D8BF1E460E9212911EE54BF033
:10480000080B9AF8003059E4A3F1300000231C464D
:104810001AF8013B04EB840400EB4404A3F13000DC
:104820000928F5D90D944BE44BF0100B11931BF0B4
:1048300020033FF41DAE0F9D073525F0070303F15C
:104840000802D3E900450F920023D2E41193002A15
:1048500040F0E785119A002A3FF4A3AC0023012120
:104860001F4608918DF8A020CDF81CB08DF8773048
:104870000A9312930E9128AEE4E4279C34E5119B31
:10488000652B40F3A78015A80DC8149903F0F0F923
:10489000002800F05081269B204AC8F800200133F0
:1048A00001340122072B27942693C8F8042000F333
:1048B0006A8308F108081F9B139A279C934203DB25
:1048C000079BDD077FF582AD269B19991A9AC8F8D8
:1048D000002001330C44072BC8F8041027942693BA
:1048E00000F39E8308F10808139B5E1E002E7FF7DD
:1048F0006DAD102E269B0A4D40F3F5812246102700
:10490000DDF830B00B9C13E07887400064874000EE
:10491000FFFFEF7F58874000548740009487400096
:10492000A887400008F10808103E102E40F3DA81F5
:1049300001331032072B2792269388E8A000F1DD7F
:1049400025AA2146584602F0C9FC00287FF430AC65
:10495000279A269BC846E7E70D9B089A9F1A002FC7
:104960007FF7E5AC102F269BB64D27DD424621464A
:10497000B0464FF0100B2E460C9C0B9D04E0103FF0
:10498000102F02F1080215DD01331031072B27919A
:10499000269382E84008F2DD25AA2946204602F047
:1049A0009DFC00287FF404AC103F102F2799269B14
:1049B0004A46E9DC35460C464646904601333C44BF
:1049C000072B2794269388E8A00000F3328208F191
:1049D0000808ACE4139B269F012B40F3FE810137AE
:1049E00001340123072F27942697C8F80060C8F8E0
:1049F000043000F3038208F10808199A1A9BC8F8DA
:104A0000003001371444072F27942697C8F8042054
:104A100000F3008208F1080815A80DC8149903F0E6
:104A200027F9139B002840F00181013B0137013633
:104A30001C44072F26972794C8F80060C8F8043054
:104A400000F3278108F108081B9AC8F804200137F1
:104A5000144421AB072F27942697C8F800307FF71E
:104A6000B3AC25AA0B990C9802F038FC00287FF40F
:104A70009FAB279CC846A9E425AA0B990C9802F085
:104A80002DFC00283FF4EBACFFF792BBDDF81CB027
:104A9000012B00F03481022B25D1CDF81CB000246D
:104AA00000251EE625AA0B990C9802F017FC002899
:104AB0007FF47EAB279CC84675E425AA0B990C9819
:104AC00002F00CFC00287FF473AB279CC8461BE463
:104AD00025AA0B990C9802F001FC00287FF468AB22
:104AE000279CC84620E4CDF81CB000240025494688
:104AF00000E03146E20842EA4572E80804F00703A4
:104B000005461446303354EA050201F8013C01F130
:104B1000FF36EED1079AD2077FF5F3AD302B3FF485
:104B2000F0AD0239302306F8013CA9EB01030E93E6
:104B30000E46FFF77BBB1F99002940F32E82129B84
:104B4000139A9342A8BF1346002B1F460DDD269BE8
:104B5000C8F8006001333C44072B2794C8F8047060
:104B6000269300F31F8308F10808129B002FA8BFAB
:104B7000DB1B002B1F4640F3D680102F269B314DA8
:104B800040F3ED8142462146B0464FF0100B2E46D1
:104B90000C9C0B9D04E00832103F102F40F3DB818A
:104BA00001331031072B2791269382E84008F2DD6C
:104BB00025AA2946204602F091FB00287FF4F8AA96
:104BC0002799269B4A46E7E70A9B0E934E46FFF736
:104BD0002DBB002D08BF0A2CC0F08F804E4620460A
:104BE00029460A220023FEF7EDFF303206F8012D98
:104BF0002046294600230A22FEF7E4FF04460D461C
:104C000054EA0503EBD1A9EB06030E93FFF70EBBA5
:104C100025AA0B990C9802F061FB00287FF4C8AA22
:104C20009DF87770279CC846FFF75EBB5E1E002E7E
:104C30007FF70AAF102E034D22DD22464FF0100BF6
:104C40000C9C06E0A8874000103E102E08F10808D2
:104C500015DD01371032072F2792269788E82008A4
:104C6000F2DD25AA0B99204602F038FB00287FF4DC
:104C70009FAA103E102E279A269FC846E9DC1446AC
:104C800001373444072F2794269788E860007FF780
:104C9000D9AE25AA0B990C9802F020FB00287FF4CE
:104CA00087AA279C269FC846CEE60F9A146813460B
:104CB0000433E5170F9322462B46FAE404321C68AE
:104CC0000F9201230025FFF794BA1C6804330F9359
:104CD000002521E40F990A4604320C680F92002542
:104CE000FFF787BA144601333444072B27942693E1
:104CF00088E860007FF768ABB3E6DDF81CB0CDF85C
:104D00001CB042AE3034012306F8414D0E93FFF73C
:104D10008DBA25AA0B990C9802F0E0FA00287FF4CE
:104D200047AA279CC8461F9A139B9A4244DB079BBD
:104D3000D90741D4139B12989A1A1D1A9542A8BFFD
:104D40001546002D0EDD2699C8F8045001310644A1
:104D50002C440729C8F800602794269100F33B8271
:104D600008F10808002DACBF561B1646002E7FF731
:104D70002DAB102E269BB04DB5DD22461027DDF859
:104D800030B00B9C04E008F10808103E102EA9DD9D
:104D900001331032072B2792269388E8A000F2DD1A
:104DA00025AA2146584602F099FA00287FF400AA65
:104DB000279A269BC846E8E7269B19981A99C8F8AF
:104DC000001001330444072B2794C8F804002693ED
:104DD00000F3F58108F10808ACE7079BDA073FF517
:104DE000FEAD013701340123072F27942697C8F819
:104DF0000060C8F804307FF725AE4AE725AA0B9972
:104E00000C9802F06BFA00287FF4D2A9279C269F09
:104E1000C846F2E525AA0B990C9802F05FFA002823
:104E20007FF4C6A9279C269FC846F5E54E46FFF7A6
:104E3000FDB925AA0B990C9802F050FA00287FF4CE
:104E4000B7A9279CC846FFF772BA159C2246204690
:104E5000149C2346214602F03DFF002840F0868244
:104E60000A9B0133119B23F020030E9300F0E28193
:104E7000472B00F01E814BF480730793149B1F1E79
:104E8000159B0893BBBF3B4603F1004700232D232E
:104E90001093119B662B00F0BB81462B00F0DF8046
:104EA0000E9B089A452B0CBF0A9B0A9D23A820A99C
:104EB00008BF5D1C049003911FA802213B4602908D
:104EC000019500910C9800F073FB119B672B06462F
:104ED00040F0E0811BF0010F00F046827419169A31
:104EE0000898179B394602F0C3FE002840F0658100
:104EF000239BA34206D230215A1C23921970239B74
:104F00009C42F9D89B1B13930E9B472B00F0E98022
:104F1000119B652B40F3CD81119B662B1F9B129338
:104F200000F09E81139B129A1946914200F38A81E8
:104F30001BF0010F40F0138222EAE273089367230B
:104F40000E921193109B002B40F0C4800A939DF8A1
:104F50007770FFF773B935460C46464690460133E5
:104F60003C44072B2794269388E8A0003FF7D1AE56
:104F700008F10808D7E60F9A136804320F92099ACD
:104F80001A60FFF76AB825AA0B990C9802F0A6F9E7
:104F900000287FF40DA9C8468DE4269B274AC8F84F
:104FA0000020013301340122072B27942693C8F8EF
:104FB000042072DC08F1080829B9139B1BB9079B70
:104FC000D8077FF503AA269B19981A9AC8F80020DB
:104FD000013302462244072B2792C8F80400269387
:104FE00000F38D8108F108080029C0F2658113994A
:104FF000C8F8006001338C18072B27942693C8F853
:1050000004107FF7E1A92CE50F9A09991368CD17D1
:105010000846043229460F92C3E90001FFF71DB884
:1050200025AA0B990C9802F059F900287FF4C0A822
:10503000279CC84658E400BFA887400094874000DA
:1050400040210C9801F00AFA0B9A106010610028B8
:1050500000F0F2810B9A40235361FEF7EEBF23A8C4
:1050600020A90A9C049003911FA803210290089A8A
:1050700001943B4600910C9800F09AFA25460646AA
:10508000119B462B06EB05047FF429AF3378302BB8
:1050900000F078811F9D2C4421E725AA0B990C98DC
:1050A00002F01CF900287FF483A81F99279CC846AA
:1050B00082E70A9B002B08BF01230A93DBE63046F8
:1050C0000A9402F09DF80F950E90CDF81CB003469F
:1050D000FFF7F9B92D2700238DF877700A93FFF7B2
:1050E000AEB81F9B12931A46033304DB0A9B194682
:1050F0009142BFF617AF119B023B11939DF84430CC
:105100008DF88430129B013B002B1F93BDBF129B77
:10511000C3F101032D222B22092B8DF8852040F3AA
:1051200016810DF193042046AB4D00E0104685FB3F
:105130000312D917C1EBA20101EB8102A3EB4202DA
:105140003032092900F8012C0B4600F1FF32EDDC6A
:1051500030330238D9B2844202F8011C40F2658132
:105160000DF18600134601E013F8011B00F8011B46
:10517000A342F9D101339B1A0DF18602134421AAEF
:105180009B1A139A1B93012A13440E9340F319811F
:105190000E9B199A13440E9323EAE373089300239A
:1051A0001293CFE625AA0B990C9802F097F80028E5
:1051B0007EF4FEAF279CC846D7E42346A2E625AA84
:1051C0000B990C9802F08AF800287EF4F1AF1F9A30
:1051D000279CC846AEE525AA0B990C9802F07EF8EC
:1051E00000287EF4E5AF1F9A139B279C9A1AC846A5
:1051F000B8E50A9B1296062B28BF06230A96374667
:1052000008930F95CDF81CB00E93744EFFF716B8A7
:1052100023A820A90A9D049003911FA803210290AE
:10522000089A01953B4600910C9800F0C1F906469A
:1052300044192BE706230A931DE62D278DF8777076
:10524000FFF7CDBA199A139B1344129A0E93002AB2
:1052500040F3B08023EAE37308936723119371E668
:10526000002B40F3C3800A9A002A40F099801BF07B
:10527000010F40F0958008930E9363E60A9B089314
:105280000E930A900F95CDF81CB012909DF8777090
:10529000FEF7D4BF119B472B7FF420AE1BF0010F0C
:1052A0007FF4EEAE239B9B1B13930E9B472B3FF487
:1052B00018AF1F9B129321E74F421031484D2FDA50
:1052C0001024DDF830B004E008F10808103F102F7A
:1052D00026DD01331032072B27922693C8F80050A1
:1052E000C8F80440F0DD25AA0B99584601F0F6FFF6
:1052F00000287EF45DAF279A269BC846E6E725AADC
:105300000B990C9801F0EAFF00287EF451AF1F9929
:10531000279A269BC84667E600200A90FEF7D0BE73
:1053200001333A44072B88E8A0002792269308F11E
:1053300008087FF75CAE25AA0B990C9801F0CEFF08
:1053400000287EF435AF279A269BC8464FE63033B7
:1053500030228DF887308DF8862022AB0FE7129B24
:10536000199A13440E9375E7239BCBE5149B1D4EAE
:10537000002BB6BF2D279DF877708DF877701A4BEC
:10538000FFF72FBA169A0898179B394602F070FC5F
:1053900000287FF47FAEC5F101051F952C449EE5E2
:1053A000129B199A13440A9A1A4422EAE2730E9243
:1053B0000893C7E5129B0E9AC3F101031A441346E2
:1053C000D0E71BF0010312937FF4E2AE0E9B23EAB9
:1053D000E3730893B6E500BF676666668C87400096
:1053E000A8874000608740005C8740000A9B13B993
:1053F0001BF0010F02D0199B0133D4E701233AE7D8
:105400000F9D9AF80130286840EAE0700A9028461B
:105410000430A2460F90FEF751BE8DF87710FFF7CB
:1054200067B88DF87710FFF715BA0DF18603A6E679
:105430008DF87710FFF7EBB80C9A0C2313604FF040
:10544000FF330993FEF7BDBE8DF87710FFF79AB9C9
:105450008DF87710FFF776B98DF87710FFF759B907
:105460008DF87710FFF712B9024B13B1024800F024
:1054700005B87047000000000564400000230146A5
:105480001A46184601F0A8BF02690B69934200F35F
:105490008D802DE9F04F03F1FF3801F1140700F181
:1054A000140B57F828205BF828304FEA880483B0A3
:1054B0000132B3FBF2F90BEB0403009407EB040A8F
:1054C0000193B9F1000F39D000252E46BC46DE46C7
:1054D0005CF8044BDEF80030A2B209FB0255220C46
:1054E0002C0C09FB0242ADB2751B96B2C6EB1346FB
:1054F00015FA83F306EB23469BB243EA0643E245E3
:105500004FEA12454EF8043B4FEA2646E0D2009B94
:105510005BF8033093B9019C231F9B450CD254F8D0
:10552000043C4BB9A4F1080302E01A68043B1AB921
:105530009B4508F1FF38F8D3C0F81080044601F00D
:1055400033FD00282EDB09F101095D46002357F8E1
:10555000041B28688AB29A1A0B0C12FA80F2C3EB69
:10556000104303EB224392B242EA0342BA4545F8A4
:10557000042B4FEA2343EAD25BF828200BEB880385
:1055800082B91A1F93450BD253F8042C42B9083B39
:1055900002E01A68043B1AB99B4508F1FF38F8D3BA
:1055A000C4F81080484603B0BDE8F08F0020704773
:1055B0002DE9F04F016C9BB00446279E92469B4616
:1055C00041B1426C4A60012393408B6001F014FBAF
:1055D00000232364BBF1000F5D4635DB00233360FD
:1055E0009D4BAB4315D0504659460022002302F094
:1055F0003FFB804600282DD0269A01231360289B6C
:10560000002B00F0BD809548186001381BB0BDE844
:10561000F08F269A42F20F731360BAF1000F0DD18A
:10562000C5F3130555B9289B8D48002BEED000F12A
:105630000803289A13601BB0BDE8F08F289B8948A7
:10564000002BE3D0C31CF4E701232BF000453360AB
:10565000AB46C5E718AA19AB0192009352465B46C8
:10566000204601F041FD2B0D814671D0CBF3130292
:1056700042F07F51189FCDF850805046A3F2FF367C
:1056800041F440110022784BFDF7AEFE6CA3D3E944
:105690000023FEF75DF86CA3D3E90023FDF7A6FE17
:1056A000CDE902013046FDF7EDFF69A3D3E9002300
:1056B000FEF74EF802460B46DDE90201FDF796FEC5
:1056C000CDE90401FEF756FA002202900023DDE93D
:1056D000040102F0D7FA002840F07381029D162DD4
:1056E00000F25D81614B03EBC503D3E90001524633
:1056F0005B4602F0E5FA002800F0C5816B1E0293BC
:1057000000230E93BF1B7B1E069300F154810023E0
:105710000893029B002BC0F24581069A0D93114617
:105720001944002306910C93249B092B2AD8052B9E
:1057300040F35B86043B24930025249B023B032B10
:1057400000F24286DFE813F0D403C902DF036104EC
:10575000189F199E3E4406F23243202B40F38E815F
:10576000C3F1400306F212409D402AFA00F028439C
:10577000FDF778FF0123013EA1F1F871149381E751
:105780003B4843E7002161642046259101F00EFA71
:105790004FF0FF330A93259A0F930123049020645E
:1057A00024920B93199B002BC0F2D980029A0E2AE7
:1057B00000F3D5802D4B03EBC203D3E90023CDE9E1
:1057C0000823259B002BC0F2BA83DDE9085650461A
:1057D0002A4633465946FEF7E5F8FEF7CBF98046F0
:1057E000FDF750FF2A463346FDF7B2FF0B4602464F
:1057F00059465046FDF7F8FD049D08F130032B7023
:105800000A9B012B06460F4605F1010568D00022D0
:10581000184BFDF79DFF0022002306460F4602F0BD
:1058200027FA002840F08880CDF82C904FF0000A2D
:10583000DFF840B00C94DDE9088928E0AFF3008080
:1058400061436F63A787D23FB3C8608B288AC63F86
:10585000FB799F501344D33F0000F07F95874000B1
:10586000B8874000C48740000000F83FF087400040
:105870009487400000002440FDF76AFF00220023C7
:1058800006460F4602F0F4F9002840F0C183424674
:105890004B4630463946FEF785F8FEF76BF904466D
:1058A000FDF7F0FE42464B46FDF752FF02460B461F
:1058B00030463946FDF798FD04F1300E049E05F898
:1058C00001EBA5EB060E0A9EB645CDE90601524650
:1058D0005B46D1D1A046DDF82C900C9C06460F46C5
:1058E00032463B4630463946FDF780FD06460F46B8
:1058F00002460B46DDE9080102F0C4F948B9324618
:105900003B46DDE9080102F0B3F9A8B118F0010F38
:1059100012D015F8018C049A6B1E04E09A4200F034
:10592000018413F8018DB8F1390F03F10105F5D0A9
:1059300008F1010883F800804946204601F05CF92F
:105940000022029B2A70269A01331360289B002BA9
:1059500000F09E8304981D601BB0BDE8F08F0B9A89
:10596000002A3ED0249A012A40F311830A9B0C9A04
:105970005F1EBA42C0F28F83D71B0A9B002BC0F276
:105980008B84089D0A9B089A1A440892069A012162
:105990001A442046069201F0C9F9064624E0012384
:1059A0000E93AFE6089A029BD21A5B420C93002337
:1059B00008920D93B8E6C7F10103089300230693FC
:1059C000A7E6029D2846FDF75DFE02460B46DDE98F
:1059D000040102F04DF900287FF480AE6B1E0293A3
:1059E0007CE60C9F089D0B9E002D0CDD069900297E
:1059F0000B4608DDA942089AA8BF2B46D21AED1A19
:105A0000CB1A089206930C9BD3B10B9B002B00F092
:105A1000B782002F10DD31463A46204601F022FAC7
:105A20004A4601460646204601F08AF94946804624
:105A3000204601F0E1F8C1460C9BDA1B40F0A18240
:105A40000121204601F072F90D9B002B80461CDDE0
:105A500001461A46204601F005FA249B012B804698
:105A600040F3548200230C93D8F8103008EB8303E2
:105A7000186901F00BF9C0F1200010E0C3F1200516
:105A80000AFA05F074E60E903CE6249B012B40F3E5
:105A9000878200230C930D9B0120002BE4D1069AF2
:105AA000104410F01F0000F0A180C0F12003042B6F
:105AB00040F39E84089BC0F11C00034408931346E6
:105AC000034405440693089B002B05DD49461A460E
:105AD000204601F017FA8146069B002B05DD414662
